{
  "contractName": "EventOrganisation",
  "abi": [
    {
      "inputs": [
        {
          "internalType": "uint256",
          "name": "",
          "type": "uint256"
        }
      ],
      "name": "events",
      "outputs": [
        {
          "internalType": "address",
          "name": "organizer",
          "type": "address"
        },
        {
          "internalType": "string",
          "name": "name",
          "type": "string"
        },
        {
          "internalType": "uint256",
          "name": "date",
          "type": "uint256"
        },
        {
          "internalType": "uint256",
          "name": "price",
          "type": "uint256"
        },
        {
          "internalType": "uint256",
          "name": "ticketCount",
          "type": "uint256"
        },
        {
          "internalType": "uint256",
          "name": "ticketRemain",
          "type": "uint256"
        }
      ],
      "stateMutability": "view",
      "type": "function",
      "constant": true
    },
    {
      "inputs": [],
      "name": "nextId",
      "outputs": [
        {
          "internalType": "uint256",
          "name": "",
          "type": "uint256"
        }
      ],
      "stateMutability": "view",
      "type": "function",
      "constant": true
    },
    {
      "inputs": [
        {
          "internalType": "address",
          "name": "",
          "type": "address"
        },
        {
          "internalType": "uint256",
          "name": "",
          "type": "uint256"
        }
      ],
      "name": "tickets",
      "outputs": [
        {
          "internalType": "uint256",
          "name": "",
          "type": "uint256"
        }
      ],
      "stateMutability": "view",
      "type": "function",
      "constant": true
    },
    {
      "inputs": [
        {
          "internalType": "string",
          "name": "name",
          "type": "string"
        },
        {
          "internalType": "uint256",
          "name": "date",
          "type": "uint256"
        },
        {
          "internalType": "uint256",
          "name": "price",
          "type": "uint256"
        },
        {
          "internalType": "uint256",
          "name": "ticketCount",
          "type": "uint256"
        }
      ],
      "name": "createEvent",
      "outputs": [],
      "stateMutability": "nonpayable",
      "type": "function"
    },
    {
      "inputs": [
        {
          "internalType": "uint256",
          "name": "id",
          "type": "uint256"
        },
        {
          "internalType": "uint256",
          "name": "quantity",
          "type": "uint256"
        }
      ],
      "name": "buyTicket",
      "outputs": [],
      "stateMutability": "payable",
      "type": "function",
      "payable": true
    },
    {
      "inputs": [
        {
          "internalType": "uint256",
          "name": "id",
          "type": "uint256"
        },
        {
          "internalType": "uint256",
          "name": "quantity",
          "type": "uint256"
        },
        {
          "internalType": "address",
          "name": "to",
          "type": "address"
        }
      ],
      "name": "transferTicket",
      "outputs": [],
      "stateMutability": "nonpayable",
      "type": "function"
    }
  ],
  "bytecode": "0x608060405234801561001057600080fd5b50611402806100206000396000f3fe6080604052600436106100555760003560e01c80630374ab0b1461005a5780630b79143014610083578063298ec208146100c557806361b8ce8c146100e1578063dae7a13c1461010c578063f086a09b14610149575b600080fd5b34801561006657600080fd5b50610081600480360381019061007c919061098c565b610172565b005b34801561008f57600080fd5b506100aa60048036038101906100a59190610a0f565b6102f4565b6040516100bc96959493929190610b0b565b60405180910390f35b6100df60048036038101906100da9190610b73565b6103d8565b005b3480156100ed57600080fd5b506100f66105bc565b6040516101039190610bb3565b60405180910390f35b34801561011857600080fd5b50610133600480360381019061012e9190610bfa565b6105c2565b6040516101409190610bb3565b60405180910390f35b34801561015557600080fd5b50610170600480360381019061016b9190610c3a565b6105e7565b005b4283116101b4576040517f08c379a00000000000000000000000000000000000000000000000000000000081526004016101ab90610cff565b60405180910390fd5b600081116101f7576040517f08c379a00000000000000000000000000000000000000000000000000000000081526004016101ee90610d91565b60405180910390fd5b6040518060c001604052803373ffffffffffffffffffffffffffffffffffffffff16815260200185815260200184815260200183815260200182815260200182815250600080600254815260200190815260200160002060008201518160000160006101000a81548173ffffffffffffffffffffffffffffffffffffffff021916908373ffffffffffffffffffffffffffffffffffffffff16021790555060208201518160010190816102aa9190610fbd565b5060408201518160020155606082015181600301556080820151816004015560a08201518160050155905050600260008154809291906102e9906110be565b919050555050505050565b60006020528060005260406000206000915090508060000160009054906101000a900473ffffffffffffffffffffffffffffffffffffffff169080600101805461033d90610de0565b80601f016020809104026020016040519081016040528092919081815260200182805461036990610de0565b80156103b65780601f1061038b576101008083540402835291602001916103b6565b820191906000526020600020905b81548152906001019060200180831161039957829003601f168201915b5050505050908060020154908060030154908060040154908060050154905086565b60008060008481526020019081526020016000206002015403610430576040517f08c379a000000000000000000000000000000000000000000000000000000000815260040161042790611152565b60405180910390fd5b426000808481526020019081526020016000206002015411610487576040517f08c379a000000000000000000000000000000000000000000000000000000000815260040161047e906111be565b60405180910390fd5b600080600084815260200190815260200160002090508181600301546104ad91906111de565b34146104ee576040517f08c379a00000000000000000000000000000000000000000000000000000000081526004016104e59061126c565b60405180910390fd5b8181600501541015610535576040517f08c379a000000000000000000000000000000000000000000000000000000000815260040161052c906112d8565b60405180910390fd5b8181600501600082825461054991906112f8565b9250508190555081600160003373ffffffffffffffffffffffffffffffffffffffff1673ffffffffffffffffffffffffffffffffffffffff168152602001908152602001600020600085815260200190815260200160002060008282546105b0919061132c565b92505081905550505050565b60025481565b6001602052816000526040600020602052806000526040600020600091509150505481565b6000806000858152602001908152602001600020600201540361063f576040517f08c379a000000000000000000000000000000000000000000000000000000000815260040161063690611152565b60405180910390fd5b426000808581526020019081526020016000206002015411610696576040517f08c379a000000000000000000000000000000000000000000000000000000000815260040161068d906111be565b60405180910390fd5b81600160003373ffffffffffffffffffffffffffffffffffffffff1673ffffffffffffffffffffffffffffffffffffffff1681526020019081526020016000206000858152602001908152602001600020541015610729576040517f08c379a0000000000000000000000000000000000000000000000000000000008152600401610720906113ac565b60405180910390fd5b81600160003373ffffffffffffffffffffffffffffffffffffffff1673ffffffffffffffffffffffffffffffffffffffff1681526020019081526020016000206000858152602001908152602001600020600082825461078991906112f8565b9250508190555081600160008373ffffffffffffffffffffffffffffffffffffffff1673ffffffffffffffffffffffffffffffffffffffff168152602001908152602001600020600085815260200190815260200160002060008282546107f0919061132c565b92505081905550505050565b6000604051905090565b600080fd5b600080fd5b600080fd5b600080fd5b6000601f19601f8301169050919050565b7f4e487b7100000000000000000000000000000000000000000000000000000000600052604160045260246000fd5b6108638261081a565b810181811067ffffffffffffffff821117156108825761088161082b565b5b80604052505050565b60006108956107fc565b90506108a1828261085a565b919050565b600067ffffffffffffffff8211156108c1576108c061082b565b5b6108ca8261081a565b9050602081019050919050565b82818337600083830152505050565b60006108f96108f4846108a6565b61088b565b90508281526020810184848401111561091557610914610815565b5b6109208482856108d7565b509392505050565b600082601f83011261093d5761093c610810565b5b813561094d8482602086016108e6565b91505092915050565b6000819050919050565b61096981610956565b811461097457600080fd5b50565b60008135905061098681610960565b92915050565b600080600080608085870312156109a6576109a5610806565b5b600085013567ffffffffffffffff8111156109c4576109c361080b565b5b6109d087828801610928565b94505060206109e187828801610977565b93505060406109f287828801610977565b9250506060610a0387828801610977565b91505092959194509250565b600060208284031215610a2557610a24610806565b5b6000610a3384828501610977565b91505092915050565b600073ffffffffffffffffffffffffffffffffffffffff82169050919050565b6000610a6782610a3c565b9050919050565b610a7781610a5c565b82525050565b600081519050919050565b600082825260208201905092915050565b60005b83811015610ab7578082015181840152602081019050610a9c565b60008484015250505050565b6000610ace82610a7d565b610ad88185610a88565b9350610ae8818560208601610a99565b610af18161081a565b840191505092915050565b610b0581610956565b82525050565b600060c082019050610b206000830189610a6e565b8181036020830152610b328188610ac3565b9050610b416040830187610afc565b610b4e6060830186610afc565b610b5b6080830185610afc565b610b6860a0830184610afc565b979650505050505050565b60008060408385031215610b8a57610b89610806565b5b6000610b9885828601610977565b9250506020610ba985828601610977565b9150509250929050565b6000602082019050610bc86000830184610afc565b92915050565b610bd781610a5c565b8114610be257600080fd5b50565b600081359050610bf481610bce565b92915050565b60008060408385031215610c1157610c10610806565b5b6000610c1f85828601610be5565b9250506020610c3085828601610977565b9150509250929050565b600080600060608486031215610c5357610c52610806565b5b6000610c6186828701610977565b9350506020610c7286828701610977565b9250506040610c8386828701610be5565b9150509250925092565b7f596f752063616e206f7267616e697a65206576656e7420666f7220667574757260008201527f6520646174650000000000000000000000000000000000000000000000000000602082015250565b6000610ce9602683610a88565b9150610cf482610c8d565b604082019050919050565b60006020820190508181036000830152610d1881610cdc565b9050919050565b7f596f752063616e206f7267616e697a65206576656e74206f6e6c79206966207960008201527f6f7520637265617465206d6f7265207468616e2030207469636b657473000000602082015250565b6000610d7b603d83610a88565b9150610d8682610d1f565b604082019050919050565b60006020820190508181036000830152610daa81610d6e565b9050919050565b7f4e487b7100000000000000000000000000000000000000000000000000000000600052602260045260246000fd5b60006002820490506001821680610df857607f821691505b602082108103610e0b57610e0a610db1565b5b50919050565b60008190508160005260206000209050919050565b60006020601f8301049050919050565b600082821b905092915050565b600060088302610e737fffffffffffffffffffffffffffffffffffffffffffffffffffffffffffffffff82610e36565b610e7d8683610e36565b95508019841693508086168417925050509392505050565b6000819050919050565b6000610eba610eb5610eb084610956565b610e95565b610956565b9050919050565b6000819050919050565b610ed483610e9f565b610ee8610ee082610ec1565b848454610e43565b825550505050565b600090565b610efd610ef0565b610f08818484610ecb565b505050565b5b81811015610f2c57610f21600082610ef5565b600181019050610f0e565b5050565b601f821115610f7157610f4281610e11565b610f4b84610e26565b81016020851015610f5a578190505b610f6e610f6685610e26565b830182610f0d565b50505b505050565b600082821c905092915050565b6000610f9460001984600802610f76565b1980831691505092915050565b6000610fad8383610f83565b9150826002028217905092915050565b610fc682610a7d565b67ffffffffffffffff811115610fdf57610fde61082b565b5b610fe98254610de0565b610ff4828285610f30565b600060209050601f8311600181146110275760008415611015578287015190505b61101f8582610fa1565b865550611087565b601f19841661103586610e11565b60005b8281101561105d57848901518255600182019150602085019450602081019050611038565b8683101561107a5784890151611076601f891682610f83565b8355505b6001600288020188555050505b505050505050565b7f4e487b7100000000000000000000000000000000000000000000000000000000600052601160045260246000fd5b60006110c982610956565b91507fffffffffffffffffffffffffffffffffffffffffffffffffffffffffffffffff82036110fb576110fa61108f565b5b600182019050919050565b7f4576656e7420646f6573206e6f74206578697374000000000000000000000000600082015250565b600061113c601483610a88565b915061114782611106565b602082019050919050565b6000602082019050818103600083015261116b8161112f565b9050919050565b7f4576656e742068617320616c7265616479206f63637572656400000000000000600082015250565b60006111a8601983610a88565b91506111b382611172565b602082019050919050565b600060208201905081810360008301526111d78161119b565b9050919050565b60006111e982610956565b91506111f483610956565b925082820261120281610956565b915082820484148315176112195761121861108f565b5b5092915050565b7f457468657265206973206e6f7420656e6f756768000000000000000000000000600082015250565b6000611256601483610a88565b915061126182611220565b602082019050919050565b6000602082019050818103600083015261128581611249565b9050919050565b7f4e6f7420656e6f756768207469636b6574730000000000000000000000000000600082015250565b60006112c2601283610a88565b91506112cd8261128c565b602082019050919050565b600060208201905081810360008301526112f1816112b5565b9050919050565b600061130382610956565b915061130e83610956565b92508282039050818111156113265761132561108f565b5b92915050565b600061133782610956565b915061134283610956565b925082820190508082111561135a5761135961108f565b5b92915050565b7f596f7520646f206e6f74206861766520656e6f756768207469636b6574730000600082015250565b6000611396601e83610a88565b91506113a182611360565b602082019050919050565b600060208201905081810360008301526113c581611389565b905091905056fea2646970667358221220fd7c0cba19006ee86dfb6ba665bf5909c83b042af0182cb864ee1944e2ac0b1564736f6c63430008110033",
  "immutableReferences": {},
  "source": "//SPDX-License-Identifier: Unlicense\r\npragma solidity >=0.5.0 <0.9.0;\r\n \r\ncontract EventOrganisation {\r\n struct Event{\r\n   address organizer;\r\n   string name;\r\n   uint date; //0 1 2\r\n   uint price;\r\n   uint ticketCount;  //1 sec  0.5 sec\r\n   uint ticketRemain;\r\n }\r\n \r\n mapping(uint=>Event) public events;\r\n mapping(address=>mapping(uint=>uint)) public tickets;\r\n uint public nextId;\r\n \r\n \r\n function createEvent(string memory name,uint date,uint price,uint ticketCount) external{\r\n   require(date>block.timestamp,\"You can organize event for future date\");\r\n   require(ticketCount>0,\"You can organize event only if you create more than 0 tickets\");\r\n \r\n   events[nextId] = Event(msg.sender,name,date,price,ticketCount,ticketCount);\r\n   nextId++;\r\n }\r\n \r\n function buyTicket(uint id,uint quantity) external payable{\r\n   require(events[id].date!=0,\"Event does not exist\");\r\n   require(events[id].date>block.timestamp,\"Event has already occured\");\r\n   Event storage _event = events[id];\r\n   require(msg.value==(_event.price*quantity),\"Ethere is not enough\");\r\n   require(_event.ticketRemain>=quantity,\"Not enough tickets\");\r\n   _event.ticketRemain-=quantity;\r\n   tickets[msg.sender][id]+=quantity;\r\n \r\n }\r\n \r\n function transferTicket(uint id,uint quantity,address to) external{\r\n   require(events[id].date!=0,\"Event does not exist\");\r\n   require(events[id].date>block.timestamp,\"Event has already occured\");\r\n   require(tickets[msg.sender][id]>=quantity,\"You do not have enough tickets\");\r\n   tickets[msg.sender][id]-=quantity;\r\n   tickets[to][id]+=quantity;\r\n }\r\n}\r\n",
  "sourcePath": "C:\\projects\\react-truffle-demo\\practise\\truffle\\contracts\\EventOrganisation.sol",
  "compiler": {
    "name": "solc",
    "version": "0.8.17+commit.8df45f5f.Emscripten.clang"
  },
  "schemaVersion": "3.4.10",
  "updatedAt": "2022-10-04T18:27:16.430Z",
  "networkType": "ethereum",
  "devdoc": {
    "kind": "dev",
    "methods": {},
    "version": 1
  },
  "userdoc": {
    "kind": "user",
    "methods": {},
    "version": 1
  }
}